:02000004080AE8
:1000000000000A0864110A08000006000600050145
:0800100004027C050000000061
:04001800240E0A08A0
:10001C0009480A4908B5884205D0094A824202D0EB
:10002C00121A00F0B5FE0748074A0021121A00F018
:10003C00BAFE064808BD00BF00000020D4100A0814
:10004C006800002068000020D0010020D0010020B2
:10005C0070B500F0D9FC074B074C1E46E41AA408F7
:10006C000025A54204D056F8253098470135F8E70D
:10007C0070BD00BF98100A08CC100A0800F052BCE2
:10008C0008B500F050FCBDE8084000F07FBC00F063
:10009C0019B900F01FB90078B0FA80F04009704728
:1000AC0001230370704700F019B8000008B5024B2B
:1000BC001B681B6B019308BDD001060808B5024BE9
:1000CC001B685B68019308BD9C01060808B5024BD0
:1000DC001B685B69019308BD9C01060808B5024BBF
:1000EC001B681B68019308BDB001060808B5024BDC
:1000FC001B68DB69019308BDB401060808B5024B07
:10010C001B689B69019308BDC401060808B5024B26
:10011C001B685B6A019308BDC401060808B5024B55
:10012C001B689B6A019308BDC401060808B5024B05
:10013C001B68DB6A019308BDC401060808B5024BB5
:10014C001B681B6B019308BDC401060808B5024B64
:10015C001B685B6B019308BDC401060808B5024B14
:10016C001B681B6C019308BDC401060808B5024B43
:10017C001B681B68019308BDD801060808B5024B23
:10018C001B681B69019308BDD801060808B5024B12
:10019C001B685B69019308BDD801060808B5024BC2
:1001AC001B689B69019308BDD801060808B5024B72
:1001BC001B68DB69019308BDD801060808B5024B22
:1001CC001B681B6A019308BDD801060808B5024BD1
:1001DC001B689B6C019308BDC001060808B5024B57
:1001EC001B685B68019308BDA401060808B5034BA6
:1001FC001B68D3F89030019308BD0000A4010608D9
:10020C0008B5034B1B68D3F89C30019308BD000064
:10021C00A401060808B5024B1B68DB6B019308BDF3
:10022C00CC01060808B5024B1B685B68019308BD3E
:10023C00C801060808B5024B1B689B68019308BDF2
:10024C00C801060808B5024B1B68DB68019308BDA2
:10025C00C801060808B5024B1B681B69019308BD51
:10026C00C801060808B5024B1B685B69019308BD01
:10027C00C801060808B5024B1B689B69019308BDB1
:10028C00C801060808B5024B1B68DB69019308BD61
:10029C00C801060808B5024B1B681B6A019308BD10
:1002AC00C801060808B5024B1B681B6B019308BDFF
:1002BC00C801060808B5024B1B685B6B019308BDAF
:1002CC00C801060808B5024B1B681B68019308BDE2
:1002DC00A001060808B5024B1B685B68019308BDBA
:1002EC00A001060810B58368044613B10322014629
:1002FC009847204610BD704710B50446182100F0F1
:10030C00EEFB204610BDF8B50F4600F10806051DA2
:10031C00002416F8011D0A22384600F010F9AE42EE
:10032C00044407D0002CF4D02E21384600F0DAF823
:10033C000444EEE72046F8BD10B50446044B1122E8
:10034C0040F8043B002100F02EFD204610BD00BFFC
:10035C00400E0A080346074A10B543F8042B01F176
:10036C00100251F8044B914243F8044BF9D10A782E
:10037C001A7010BD400E0A08024A41600260042245
:10038C0002757047400E0A0810B59DF8084044EA03
:10039C00032343EA024242EA0161042341600375EC
:1003AC0010BD000037B5044D05609DF81850009540
:1003BC00FFF7EAFF03B030BD400E0A08014A024BBA
:1003CC001A607047C20E0A086C00002000231A46FF
:1003DC004068FFF727BF002202214068FFF732BFB9
:1003EC00002211464068FFF725BF002211464068E5
:1003FC00FFF730BF00231A4619464068FFF732BF9B
:10040C0000231A4619464068FFF734BF002281F0DA
:10041C0001014068FFF736BF00224068FFF742BF7A
:10042C00002211464068FFF745BF00221146406884
:10043C00FFF730BF70B516468EB0044608A8FFF71C
:10044C007BFF1122002103A800F0ADFC304600F028
:10045C00DBFC00250A4B009581B25B6803AA304691
:10046C00FFF7B4FE20B129462046FFF785FF03E0D5
:10047C0003A92046FFF76EFF20460EB070BD00BFEB
:10048C00E4000020024B034A1A6000225A607047B5
:10049C0070000020380F0A08F8B506460D468F1874
:1004AC000024BD420CD0336815F8011B9B68304604
:1004BC009847002801DB0444F3E7002C08BF0446EE
:1004CC002046F8BD70B505460C46084649B100F00B
:1004DC009BFC2B68024621462846BDE87040DB6831
:1004EC00184770BD03689B681847012A98BF0A22F9
:1004FC0030B50B468BB000218DF824100DF1230480
:10050C00B3FBF2F505FB1233DBB2092B94BF30338E
:10051C003733DBB2214604F801392B46002DEFD1DD
:10052C00FFF7D0FF0BB030BD10B422B90368C9B2CD
:10053C009B6810BC1847D2B210BCFFF7D6BFFFF7B0
:10054C00F3BF10B50446FFF7CDFE204610BD0000EA
:10055C00034800238360034A034900F0BBBA00BF81
:10056C0078000020680000204F050A08704710B57D
:10057C000446102100F0B3FA204610BD70B50446B5
:10058C000E46074B0025036040F80C5FFFF78EFD0D
:10059C0030462671FFF7AAFDA560204670BD00BF4E
:1005AC006C0F0A084FF6FF72034B0020187058802E
:1005BC009A80FFF713BE00BF88000020024B1A6818
:1005CC00024B1A60704700BF000000209000002012
:1005DC0070474174704708B5007CFFF7BFFD20EAF7
:1005EC00E07008BD08B5007CFFF798FD20EAE070CC
:1005FC0008BD08B5007CFFF7A1FD30EA200028BF3C
:10060C004FF0FF3008BD08B5007CFFF78FFD30EAD6
:10061C00200028BF4FF0FF3008BD007CFFF796BDCF
:10062C0010B50446142100F05AFA204610BD70B5DE
:10063C00457C04460E4625B9007CFFF78FFD00284B
:10064C0005DD3146207CBDE87040FFF75FBD2846D4
:10065C0070BD000010B504460846114600226260C9
:10066C004FF47A72A260054A2074226001226274EF
:10067C001A46FFF743FD204610BD00BFA80F0A081D
:10068C00F8B5194C25684DB98420FFF700FD0646D6
:10069C0018B18422294600F086FB2660134D2E6883
:1006AC004EB98420FFF7F3FC074618B1842231467B
:1006BC0000F079FB2F600E4F396811F0010611D153
:1006CC003846FFF7E8FC68B1226831462B680948C8
:1006DC00FFF7C0FF3846FFF7E3FC074A0749054818
:1006EC0000F0F8F90348F8BDB0000020A800002085
:1006FC00AC0000209400002068000020DD050A08F2
:10070C0041747047704708B50021007CFFF746FD27
:10071C0030EA200028BF4FF0FF3008BD08B501219A
:10072C00007CFFF73BFD30EA200028BF4FF0FF3084
:10073C0008BD08B5007CFFF729FD20EAE07008BD74
:10074C0008B5007CFFF71AFD20EAE07008BD007CBC
:10075C00FFF734BD10B50446142100F0C0F9204653
:10076C0010BD38B50446007C0D46FFF70FFD002880
:10077C0001DC607C28B12946207CFFF717FD20EABC
:10078C00E07038BD10B50446002363604FF47A73F3
:10079C00A360054B08462360012321746374114642
:1007AC00FFF7E4FC204610BDD80F0A0810B504462C
:1007BC001422002100F0F7FA204610BD30B50E4D82
:1007CC0087B001A8FFF7F2FF296811F0010410D1DE
:1007DC002846FFF760FC60B101AA21460748FFF7E5
:1007EC00D1FF2846FFF75CFC054A0649034800F098
:1007FC0071F9024807B030BDB4000020BC000020E5
:10080C006800002011070A0810B5044614220021C4
:10081C0000F0C9FA204610BD10B50E4C86B001A8E8
:10082C00FFF7F2FF2368DB0710D42046FFF733FCF9
:10083C0060B101AA01210848FFF7A4FF2046FFF789
:10084C002FFC064A0649044800F044F9024806B059
:10085C0010BD00BFB8000020D000002068000020B0
:10086C0011070A08002211464068FFF7F3BCF0B5E7
:10087C00164689B011220F460446002103A800F049
:10088C0092FA304600F0C0FA0025009581B27B68E0
:10089C0003AA3046FFF79AFC20B129462046FFF701
:1008AC006BFD03E003A92046FFF754FD204609B079
:1008BC00F0BD002211464068FFF7ECBC0022114647
:1008CC004068FFF7F7BC00224068FFF7EBBC002242
:1008DC0081F001014068FFF7D5BC00231A46194688
:1008EC004068FFF7C7BC00231A4619464068FFF75B
:1008FC00B9BC002211464068FFF79CBC00220221C3
:10090C004068FFF79FBC00231A464068FFF78ABC7B
:10091C00024B04225A60024A1A607047E40000201D
:10092C0008100A087047704708B5144B33B1FFF72D
:10093C0045FF03681B699847002816DC104B33B140
:10094C00FFF79EFE03681B699847002810DC0D4BCF
:10095C000BB1AFF300800C4B7BB1FFF75DFF03686D
:10096C001B699847002806DC08BDAFF30080E5E75B
:10097C00AFF30080EBE7AFF3008008BD0000000090
:10098C0000000000000000000000000008B5FFF7A8
:10099C00CBFFFFF79BFB014B186008BDF400002058
:1009AC000248034A0349121A00F0F2B9004002400F
:1009BC0004400240D0100A0807B5002300931A46E1
:1009CC006FF07701FFF71CFC03B05DF804FB00002F
:1009DC0007B543880A2B08D0502B09D1094B1B684B
:1009EC003BB103B05DF804EB1847FFF7E5FF06E0F9
:1009FC00002300931A466FF07701FFF701FC03B058
:100A0C005DF804FBEC00002038B5104C104D236849
:100A1C00AB42104B0CBF012200221A7002D0FFF720
:100A2C00BFFF2560FFF74AFB044600F0C5F90A4BEF
:100A3C0013B12046AFF3008000210748FFF7EAFB13
:100A4C00BDE8384000210548FFF7D0BB004002400C
:100A5C001E1C279AF000002000000000DD090A0887
:100A6C0013B5084C00231A46194600932046FFF78D
:100A7C0099FC2046044A054902B0BDE8104000F03C
:100A8C0029B800BFF80000206800002003030A0802
:100A9C0070B50C4C0C4E0D4D00212046FFF76EFD31
:100AAC0020460B4C3246294600F014F80121204612
:100ABC00FFF764FD324629462046BDE8704000F041
:100ACC0009B800BF100100206800002079050A0851
:100ADC00200100200B460146184600F04BB9FFF7E9
:100AEC00D8BA0000244B1A68D0075CBF01221A60E8
:100AFC00224B1A68D1075CBF01221A60204B1A687E
:100B0C00D2075CBF01221A601E4B1A68D0075CBF6B
:100B1C0001221A601C4B1A68D1075CBF01221A60B3
:100B2C001A4B1A68D2075CBF01221A60184B1A685C
:100B3C00D0075CBF01221A60164B1A68D1075CBF44
:100B4C0001221A60144B1A68D2075CBF01221A608A
:100B5C00124B1A68D0075CBF01221A60104B1A683E
:100B6C00D1075CBF01221A600E4B1A68D2075CBF1A
:100B7C0001221A60704700BF5C0100205801002060
:100B8C0054010020500100204C010020480100209D
:100B9C0044010020400100203C01002038010020CD
:100BAC003401002030010020184B1A68D1075CBFBB
:100BBC0001221A60164B1A68D2075CBF01221A6018
:100BCC00144B1A68D0075CBF01221A60124B1A68CA
:100BDC00D1075CBF01221A60104B1A68D2075CBFA8
:100BEC0001221A600E4B1A68D0075CBF01221A60F2
:100BFC000C4B1A68D1075CBF01221A600A4B1A68A9
:100C0C00D2075CBF01221A60704700BF7C01002034
:100C1C007801002074010020700100206C0100207C
:100C2C00680100206401002060010020184B1A6844
:100C3C00D1075CBF01221A60164B1A68D2075CBF41
:100C4C0001221A60144B1A68D0075CBF01221A608B
:100C5C00124B1A68D1075CBF01221A60104B1A683C
:100C6C00D2075CBF01221A600E4B1A68D0075CBF1A
:100C7C0001221A600C4B1A68D1075CBF01221A6062
:100C8C000A4B1A68D2075CBF01221A60704700BF7A
:100C9C009C0100209801002094010020900100206C
:100CAC008C0100208801002084010020800100209C
:100CBC00244B1A68D0075CBF01221A60224B1A68B9
:100CCC00D1075CBF01221A60204B1A68D2075CBFA7
:100CDC0001221A601E4B1A68D0075CBF01221A60F1
:100CEC001C4B1A68D1075CBF01221A601A4B1A6898
:100CFC00D2075CBF01221A60184B1A68D0075CBF80
:100D0C0001221A60164B1A68D1075CBF01221A60C7
:100D1C00144B1A68D2075CBF01221A60124B1A6876
:100D2C00D0075CBF01221A60104B1A68D1075CBF58
:100D3C0001221A600E4B1A68D2075CBF01221A609E
:100D4C00704700BFCC010020C8010020C401002066
:100D5C00C0010020BC010020B8010020B40100201B
:100D6C00B0010020AC010020A8010020A40100204B
:100D7C00A001002010B5054C13462CB10A460146C3
:100D8C000220AFF3008010BD204610BD0000000013
:100D9C0010B5431E0A44914204D011F8014B03F8DC
:100DAC00014FF8E710BD03460244934202D003F80A
:100DBC00011BFAE77047000038B5124B05461C685A
:100DCC00A36BD3B91820FFF77DFA43F20E33A0635F
:100DDC0003804AF6CD33438041F2342383804EF2B4
:100DEC006D63C3804DF6EC630381052343810B23B4
:100DFC00838101220023C0E90423A36B00221D611F
:100E0C005A6138BD64000020034613F8012B002AF8
:100E1C00FBD1181A013870471D000A085D000A083A
:100E2C0089000A088D000A0800000000000000007C
:100E3C000000000013030A0803030A0805030A084C
:100E4C00626175640053657269616C00555342535D
:100E5C00657269616C3100747970650070617261E2
:100E6C006D00636D6400696400686E640073747275
:100E7C006D0066696C74006C766C0061646448612A
:100E8C006E646C65720072656D6F766548616E6438
:100E9C006C657200656E756D48616E646C6572731D
:100EAC00004A534F4E53747265616D4C6F674861C5
:100EBC006E646C6572006170700025303130752085
:100ECC00005D20002564002C200028293A200020F9
:100EDC005B00636F6465203D2000256900646574C8
:100EEC0061696C73203D20000D0A0066006C6E0079
:100EFC00666E00636F64650064657461696C006E96
:100F0C006F6E6500747261636500696E666F007761
:100F1C0061726E006572726F720070616E6963004F
:100F2C00616C6C000000000000000000D9030A088E
:100F3C00E3030A08ED030A08F7030A0801040A0888
:100F4C000D040A0819040A0825040A082D040A08C5
:100F5C0037040A0841040A080000000000000000E1
:100F6C0079050A087B050A085A00252B3033643AA8
:100F7C00253032750025592D256D2D2564542548B5
:100F8C003A254D3A2553257A0061736374696D6572
:100F9C00000000000000000000000000DD050A0851
:100FAC002D060A083B060A08A5040A08F1050A08DA
:100FBC0013060A08FF050A0827060A08DF050A08AF
:100FCC00E3050A08000000000000000011070A08F1
:100FDC0061070A086F070A08A5040A084D070A08E2
:100FEC0013070A0829070A085B070A083F070A08BB
:100FFC000D070A08000000000000000013090A0891
:10100C0009090A08FF080A0871080A08F3080A08FF
:10101C00E7080A08DB080A08D3080A08C9080A08FE
:10102C00BF080A087B080A08000000000000000046
:10103C0000000000000000000000000000000000A4
:10104C000000000000000000000000000000000094
:10105C000000000000000000000000000000000084
:10106C000000000000000000000000000000000074
:10107C000000000000000000000000000000000064
:10108C00000000000000000043000000B3000A084C
:10109C00C9030A0891040A085D050A08B1050A0883
:1010AC00C9050A081D090A086D0A0A089D0A0A08DA
:1010BC00F10A0A08B50B0A08390C0A08BD0C0A0813
:0410CC000000000020
:0410D000000000001C
:1010D400950F0A080000000034100A0854100A088A
:1010E40074100A0800000000000000000000000066
:1010F4000000000094100A08000000000000000036
:1011040000000000000000000000000000000000DB
:1011140000000000000000000000000000000000CB
:1011240000000000000000000000000000000000BB
:0811340000000000040000208F
:10113C00FFFFFFFF00000102030405060708090A70
:10114C000B0C0D0E0F101112131415161718191A6B
:08115C001B1C1D1E1F202800B2
:041164007856341273
:04000005080A001CC9
:00000001FF
